:020000040800F2
:1000000000000220E9420008710700087307000899
:10001000750700087707000879070008000000004E
:100020000000000000000000000000007B07000846
:100030007D070008000000007F0700088107000816
:1000400039430008394300083943000839430008A0
:100050003943000839430008394300083943000890
:100060003943000839430008394300083943000880
:100070003943000839430008394300083943000870
:100080003943000839430008394300083943000860
:100090003943000839430008394300083943000850
:1000A0003943000839430008394300083943000840
:1000B0003943000839430008394300083943000830
:1000C0003943000839430008394300083943000820
:1000D0003943000839430008394300083943000810
:1000E0003943000839430008394300083943000800
:1000F00039430008394300083943000839430008F0
:1001000039430008394300083943000839430008DF
:1001100039430008394300083943000839430008CF
:1001200039430008394300083943000839430008BF
:1001300039430008000000000000000039430008B7
:10014000394300083943000839430008890700088B
:10015000394300083943000839430008394300088F
:10016000394300083943000839430008394300087F
:100170003943000839430008000000000000000077
:0801800039430008394300086F
:100188000348044B834202D0034B03B1184770471E
:10019800F8000020F8000020000000000548064B89
:1001A8001B1AD90F01EBA301491002D0034B03B16D
:1001B80018477047F8000020F800002000000000F1
:1001C80010B5064C237843B9FFF7DAFF044B13B197
:1001D8000448AFF300800123237010BDF80000200D
:1001E800000000003C43000808B5044B1BB104495B
:1001F8000448AFF30080BDE80840CFE700000000E6
:10020800FC0000203C43000870B50F4B0F4DAB427B
:10021800A3EB050607D0B610002455F8043B0134BB
:100228009847A642F9D804F085F8094D094B5E1B9A
:10023800AB424FEAA60606D0002455F8043B013429
:100248009847A642F9D870BDBC430008BC430008D3
:10025800BC430008C0430008830730B547D0541E8C
:10026800002A3ED0CAB2034601E0013C39D303F864
:10027800012B9D07F9D1032C2CD9CDB205EB05250F
:100288000F2C05EB054535D9A4F1100222F00F0C0F
:1002980003F1100EE6444FEA121C1A46C2E9005553
:1002A800C2E9025510327245F8D10CF1010214F07E
:1002B8000C0F03EB021204F00F0C13D0ACF1040383
:1002C80023F003030433134442F8045B9342FBD145
:1002D8000CF003042CB1C9B21C4403F8011BA3425F
:1002E800FBD130BD64461346002CF4D1F9E7034630
:1002F8001446C0E71A46A446E0E700BF53B94AB916
:10030800002908BF00281CBF4FF0FF314FF0FF3015
:1003180000F06AB9ADF1080C6DE904CE00F006F8FA
:10032800DDF804E0DDE9022304B070472DE9F04769
:10033800089D0E4604460F46002B4AD194468C452C
:10034800B2FA82F260D942B1C2F12003974020FA92
:1003580003F30CFA02FC1F4394404FEA1C4E1FFAA9
:100368008CF6B7FBFEF1230C0EFB117743EA07432B
:1003780001FB06F098420AD91CEB030301F1FF3791
:1003880080F01581984240F21281023963441B1AA9
:10039800A4B2B3FBFEF00EFB103344EA034400FBA7
:1003A80006F6A6420AD91CEB040400F1FF3380F0DC
:1003B8000081A64240F2FD806444023840EA0140D0
:1003C800A41B00211DB1D4400023C5E90043BDE8AA
:1003D800F0878B4205D90DB1C5E900010021084617
:1003E800F5E7B3FA83F1002946D1B34202D382423A
:1003F80000F2F580841A66EB030201201746002DEF
:10040800E5D0C5E90047E2E7002A40F09380A1EB78
:100418000C034FEA1C471FFA8CFE0121B3FBF7F6C9
:1004280007FB1630230C43EA00430EFB06F0984204
:1004380008D91CEB030306F1FF3802D2984200F2F8
:10044800D08046461B1AA4B2B3FBF7F007FB103363
:1004580044EA03440EFB00FEA64508D91CEB04043D
:1004680000F1FF3302D2A64500F2B6801846A4EB8D
:100478000E0440EA0640A5E7C1F120078B4022FAA6
:1004880007FC4CEA030C06FA01FE20FA07F426FAE8
:1004980007F344EA0E0400FA01F84FEA1C404FEA59
:1004A8001449B3FBF0FE1FFA8CF600FB1E3349EA31
:1004B80003430EFB06F9994502FA01F20BD91CEB2E
:1004C80003030EF1FF3A80F08580994540F282805F
:1004D800AEF1020E6344A3EB0909A4B2B9FBF0F331
:1004E80000FB139944EA094403FB06F6A64208D91F
:1004F8001CEB040403F1FF3068D2A64266D9023B24
:10050800644443EA0E40A41BA0FB02E6B4427346CF
:10051800B14652D34FD05DB1B8EB030264EB090486
:1005280004FA07F722FA01F31F43CC40C5E9007427
:1005380000214CE7C2F1200120FA01F30CFA02FC79
:1005480026FA01F1964033434FEA1C471FFA8CFE06
:10055800B1FBF7F007FB1016190C41EA064100FB46
:100568000EF68E4204FA02F408D91CEB010100F1E0
:10057800FF382DD28E422BD902386144891B9BB299
:10058800B1FBF7F607FB161143EA014306FB0EF130
:10059800994208D91CEB030306F1FF3814D299429B
:1005A80012D9023E63445B1A46EA004136E73946EF
:1005B800EDE6184602E7F045ADD2BEEB020366EB66
:1005C8000C060138B146A6E74646ECE7034698E72D
:1005D8004046D3E7D6467EE76444023847E70846F4
:1005E8000DE7023E63442DE7704700BF84B0002248
:1005F8000192104B196B41F080011963196B01F0DE
:100608008001019101990292196B41F0020119636D
:10061800196B01F002010291029903921A6B42F0E0
:1006280001021A631B6B03F001030393039B04B0DD
:10063800704700BF0038024072B6FEE708B50A48A6
:100648000A4B03600A4B436000238360C3604FF486
:100658008042026143618361C361036202F056FC18
:1006680000B908BDFFF7E8FF5C0100200054004016
:10067800A086010008B50A480A4B03604FF4E1332D
:10068800436000238360C36003610C22426183617D
:10069800C36102F0A1FD00B908BDFFF7CDFF00BF9F
:1006A800140100200048004000B595B03022002118
:1006B80008A8FFF7D1FD002303930493059306933D
:1006C800079301931F4A116C41F080511164126C19
:1006D80002F080520192019A02931B4B1A6842F46D
:1006E80080421A601B6803F480430293029B032331
:1006F80008934FF48033099301230B9310230C9331
:1007080002230E934FF480020F920F221092902230
:10071800119212930523139308A801F0F9FE68B902
:100728000F2303930021049105910691079103A8D3
:1007380002F03EF920B915B05DF804FBFFF77CFF25
:10074800FFF77AFF003802400070004008B502F059
:100758009DFBFFF7A9FFFFF749FFFFF76FFFFFF7C3
:1007680089FF00F0A1F8FEE7FEE7FEE7FEE7FEE7F7
:10077800FEE770477047704708B502F0A1FB08BD57
:1007880008B5024800F001FE08BD00BFAC18002003
:1007980082B0002100910B4B5A6C42F480425A649B
:1007A8005A6C02F480420092009A01911A6C42F04D
:1007B80080521A641B6C03F080530193019B02B0B2
:1007C800704700BF0038024030B589B0002303935A
:1007D80004930593069307930268144B9A4201D039
:1007E80009B030BD00250195114C236B43F002037D
:1007F8002363236B03F002030193019BC02303933C
:1008080012230493032306930423079303A9094897
:1008180002F0A4F90295236C43F400132364236CBB
:1008280003F400130293029BDAE700BF0054004070
:10083800003802400004024000B589B00023039349
:1008480004930593069307930268154B9A4202D0C6
:1008580009B05DF804FB0021019103F5F8331A6C27
:1008680042F480221A641A6C02F480220192019ADE
:1008780002911A6B42F002021A631B6B03F0020327
:100888000293029B4FF440630393022304930323D0
:1008980006930723079303A9024802F05FF9D7E7F5
:1008A800004800400004024008B500220F491048E3
:1008B80002F0CCFC70B90F490D4802F0DEFC60B9BB
:1008C8000D490B4803F0CAFC50B9094802F0EFFC87
:1008D80048B908BDFFF7B0FEEDE7FFF7ADFEEFE75B
:1008E800FFF7AAFEF1E7FFF7A7FEF2E734000020C2
:1008F800B0010020B40000205000002012230B801B
:10090800004870472000002004230B8000487047EF
:100918001C000020002393421ED200B510E00CF109
:10092800370C01F813C000014FEA430C0CF1010C1D
:100938004FF0000E01F80CE00133DBB2934209D20C
:100948004FEA107CB0F1204FE9D20CF1300C01F8DD
:1009580013C0E8E75DF804FB7047000038B50B4B9F
:10096800D3F8100AD3F8144AD3F8183AC01800D1AB
:1009780038BD074D08222946FFF7CCFF042205F1B0
:1009880010012046FFF7C6FFF2E700BF0070FF1F07
:100998000200002008B51A230B80FFF7DFFF01488B
:1009A80008BD00BF0000002008B50A4628B905495F
:1009B800054803F0CCF9034808BD0249024803F092
:1009C800C6F9F8E78C0400205443000810B50A461D
:1009D800034C2146034803F0BAF9204610BD00BF76
:1009E8008C0400206C43000808B50A4628B905495C
:1009F800054803F0ACF9034808BD0249024803F072
:100A0800A6F9F8E78C0400208043000808B50A46D8
:100A180028B90549054803F09AF9034808BD024971
:100A2800024803F094F9F8E78C0400208C4300088E
:100A380000207047002070470020704710B501461D
:100A4800044C204603F023FC204603F02CFC002035
:100A580010BD00BFB001002010B5064C00220649A9
:100A6800204603F006FC0549204603F010FC002050
:100A780010BD00BFB00100208C0600208C0E0020A5
:100A880030B589B000230393049305930693079325
:100A98000368B3F1A04F01D009B030BD002501951E
:100AA800164C236B43F001032363236B03F001030C
:100AB8000193019B4FF4C053039302230493032330
:100AC80006930A23079303A90D4802F047F8636BBE
:100AD80043F0800363630295636C43F4804363646B
:100AE800636C03F480430293029B2A462946432001
:100AF80002F07EF9432002F08BF9CDE7003802407E
:100B08000000024008B500F29C41D0F8E00402F071
:100B1800E4FB08BD08B501EBC10300EB8303D3F880
:100B28006022D0F8E00402F0AAFC08BD08B501EB89
:100B3800C10300EB83031A6AD0F8E00402F001FD58
:100B480008BD08B5D0F8E00402F044FC08BD10B5B3
:100B58000446C17911B1022909D10121D4F8E00470
:100B680002F019FCD4F8E00402F0E3FB10BDFFF733
:100B780063FD0121F2E7000010B50446D0F8E00457
:100B880002F00CFC2268D2F8003E43F00103C2F8E0
:100B9800003EE37A23B1034A136943F00603136165
:100BA80010BD00BF00ED00E008B5D0F8E00402F089
:100BB80004FC08BD08B5D0F8E00402F033FC08BD19
:100BC80008B5D0F8E00402F016FC08BD08B5D0F866
:100BD800E00402F03EFC08BD08B5D0F8E00402F0DD
:100BE8003AFC08BD02780AB10020704710B50346E8
:100BF8001548C0F8E034C3F8C8024FF0A0430360BA
:100C0800042303710222C27100238371427283722A
:100C1800C37203738373C37300F0EEF880B90A4C90
:100C28008021204600F0B7FE40220021204600F037
:100C38008CFE80220121204600F087FE002010BD96
:100C4800FFF7FAFCEBE700BFAC180020D0F8C83279
:100C580011F0800F08D101F07F0101EBC10103EB16
:100C6800810393F85602704701F07F0101EBC1013F
:100C780003EB8103987D704708B5D0F8C80200F0EF
:100C8800BFFA08BD004870478C160020704703283B
:100C980005D8DFE800F005040205012070470320AD
:100CA800704708B5D0F8C80200F027F9FFF7EFFF42
:100CB80008BD08B594461A466346D0F8C80200F045
:100CC800FCF9FFF7E4FF08BD08B5D0F8C80200F04A
:100CD8003AFAFFF7DCFF08BD08B5D0F8C80200F003
:100CE800BDFAFFF7D4FF08BD08B5D0F8C80200F078
:100CF800F8FAFFF7CCFF08BD08B5D0F8C80200F035
:100D0800C9F9FFF7C4FF08BD08B5D0F8C80200F05C
:100D180080FAFFF7BCFF08BD08B5D0F8C80200F09C
:100D28004AFAFFF7B4FF08BD2DE9F04383B0D0F8C5
:100D3800008001EBC10300EB83039A6A5B6A9A4265
:100D480054D807460C469B1A01EBC10200EB8202FD
:100D5800D2699A4200D31A4602F103094FEA990967
:100D680015E006F103094FEA9909BB7904EBC405BC
:100D780007EB8505296A0093B3B2E2B2404601F059
:100D880042F92B6A33442B62AB6A3344AB6208EBFB
:100D9800441303F510639B699BB24B4512D304EBD4
:100DA800C40307EB83039A6A5B6A9A420AD24BB17F
:100DB8009B1A04EBC40207EB8202D6699E42D0D389
:100DC8001E46CEE704EBC40307EB83077A6ABB6AC7
:100DD8009A420FD804F00F040122A240D8F8343800
:100DE80023EA0203C8F83438002000E0012003B0E9
:100DF800BDE8F0830020FAE730B583B000287AD048
:100E08000446056890F89534C3B1032384F89534F3
:100E1800B5F1A04F17D0206800F0A8FE237C8DF80C
:100E28000030231D0ECB206800F0DFFD70B10223D7
:100E380084F895340125284603B030BD80F89434F1
:100E4800FFF71EFEE1E70023A371E4E70021206815
:100E580001F0EFFA024608B9034617E0022384F8C6
:100E680095340125E7E703EBC30104EB8101012079
:100E780048750B75CB8500200876C861086203EBBE
:100E8800C30104EB810148620133DBB22079984247
:100E9800E9D816E002EBC20304EB8303002183F8D0
:100EA800551283F8542283F85812C3F85C12C3F819
:100EB800601202EBC20304EB8303C3F8641201322D
:100EC800D2B29042E6D8237C8DF80030231D0ECB99
:100ED800206800F0A1FE054620B1022384F895346D
:100EE8000125A8E700236374012384F8953420685A
:100EF80001F05EFA9FE701259DE7036890F89424C6
:100F0800012A1AD010B50446012280F89424DA6820
:100F180012F0400F02D0427B012A09D0206800F06D
:100F28001FFE206801F036FA002084F8940410BDF2
:100F38009A6B42F480329A63F0E70220704700000F
:100F480070B504460D460068066C00EB411303F5C6
:100F580030639A68A179012911D038498E4256D058
:100F68003DB905EBC50304EB8303D3F86432002BCA
:100F78005ED0E9B22046FFF7CDFD002070BD12F02B
:100F8800080F09D02E498E42F7D912F4004FF4D039
:100F98004FF400429A60F0E712F0200F02D02022AE
:100FA8009A60EAE712F0280FE7D125498E4206D960
:100FB80012F4004F03D04FF400429A60DDE705EBCE
:100FC800C50204EB8202D2F874121B69C3F3120340
:100FD800CB1AC2F868327DB905EBC50204EB820270
:100FE800D2F864226AB105EBC50204EB8202D2F89A
:100FF80060121944C2F86012E9B22046FFF78AFD70
:10100800BBE704F29C42012101F052FAF4E712F422
:10101800004F03D04FF400429A60AEE712F0200F61
:1010280001D020229A60E9B22046FFF773FDA4E7B9
:1010380004F29C42002101F03BFA9AE70A31544F2E
:101048000A30544F38B5044603681D6C03EB41134E
:10105800D3F8081B0E4A954207D903F5306311F4FB
:10106800004F02D04FF400429A602046FFF74AFD35
:10107800074B9D4202D9A379012B01D0002038BD2E
:1010880004F29C420121206801F012FAF6E700BF41
:101098000A30544F90F89434012B0CD010B5044604
:1010A800012380F894344174006801F063F900204A
:1010B80084F8940410BD0220704738B505468C4664
:1010C80011F0800F2BD101F00F0E0EEBCE04A4000F
:1010D80004F514740444211D0EEBCE0E00EB8E0EA5
:1010E80000208EF855020CF00F0C81F800C0C2F3F6
:1010F8000A028A600B714A780AB1A1F81AC0022B59
:101108001CD095F89434012B1BD0012385F8943416
:10111800286800F05CFE002085F8940438BD01F0D2
:101128000F0000EBC001890010312944043100EBA5
:10113800C00005EB800001244475D4E700234B71FF
:10114800DFE70220EAE710B504460A4611F0800FEF
:1011580020D101F00F0000EBC0039B0003F51473CE
:101168002344191D00EBC00004EB8000002380F825
:10117800553202F00F020A7094F89434012B18D0FB
:10118800012384F89434206800F06EFE002084F86F
:10119800940410BD01F00F0000EBC0039B00103356
:1011A8002344191D00EBC00004EB800001234375A4
:1011B800DFE70220EDE710B5144601F00F0C0CEB49
:1011C800CC01890001F51471014404310CEBCC0EFB
:1011D80000EB8E0ECEF86022CEF864320023CEF8F3
:1011E80068328EF855328EF854C28279012A04D0BA
:1011F800006800F01FFF002010BDCEF87042F7E72E
:1012080001F00F0101EBC10100EB8100D0F8680289
:10121800704710B5144601F00F0C0CEBCC01890097
:101228001031014404310CEBCC0E00EB8E0ECEF8DD
:101238002020CEF824300023CEF8283001238EF861
:1012480015308EF814C082799A4204D0006800F0F4
:10125800F1FE002010BDCEF83040F7E738B501F0B8
:101268000F050279AA4238D304460B4611F0800FC5
:101278001FD101EBC101890001F51471014404314A
:1012880003EBC30300EB8303002283F855220123F9
:101298008B700D7094F89434012B20D0012384F8BE
:1012A8009434206801F00BF885B1002084F8940488
:1012B80038BD05EBC501890010310144043105EB47
:1012C800C50300EB830301225A75E0E704F29C4250
:1012D800A179206801F0ECF8E7E70120E8E70220AF
:1012E800E6E701F00F0302799A4230D310B50446BD
:1012F80011F0800F1ED103EBC301890001F51471B1
:101308000144043103EBC30200EB8202002082F89F
:10131800550200228A700B7094F89434012B18D06F
:10132800012384F89434206800F0F6FF002084F844
:10133800940410BD03EBC30189001031014404314A
:1013480003EBC30200EB820201205075E1E70120A4
:1013580070470220EDE708B511F0800F0CD101F0BD
:101368000F0101EBC101890001F514710144043139
:10137800006800F0E9FD08BD01F00F0101EBC101B3
:101388008900103101440431F2E72DE9F04F83B0B0
:1013980004460568284601F048F810B103B0BDE8D6
:1013A800F08F0646206801F011F80028F6D005F500
:1013B8000067BB68C3F30D23C4F8D434206801F078
:1013C80005F810F0020F04D02268536903F00203F5
:1013D8005361206800F0FAFF10F0100F15D0226852
:1013E800936923F010039361D5F8208008F00F0962
:1013F80008F4F013B3F5802F4CD0B3F5402F6FD01D
:101408002268936943F010039361206800F0DEFFBF
:1014180010F4002F76D1206800F0D8FF10F4802F48
:1014280040F0E080206800F0D1FF0028C0F2618120
:10143800206800F0CBFF10F4006F09D0BB6813F0F0
:10144800010F40F06E812268536903F40063536111
:10145800206800F0BBFF10F4805F40F066812068D0
:1014680000F0B4FF10F4005F40F0B381206800F092
:10147800ADFF10F0080F40F0C481206800F0A6FF0F
:1014880010F0800F00F0D781AB6923F08003AB61C7
:101498000126C0E147F6F07318EA030FB0D04FEA0F
:1014A800181A4FEAC903019309EBC90B04EB8B0B1C
:1014B800C8F30A12DBF86012284600F0DDFEDBF8FC
:1014C8006032CAF30A0A5344CBF86032DBF8683258
:1014D800019A4A4404EB82025344C2F868328FE707
:1014E800082204F29C41284600F0C6FE09EBC90315
:1014F80004EB8303D3F86822C8F30A184244C3F8FC
:1015080068227DE7206800F065FF8046B14635E037
:1015180005EB49130122C3F8082B49462046FFF77B
:101528000FFD3CE005EB49130822C3F8082B494698
:101538002046FFF787FD35E009EBC90304EB830379
:1015480093F85732012B41D005EB49130222C3F817
:10155800082B1AF0200F04D005EB49132022C3F8FA
:10156800082B1AF4005F05D005EB49134FF400521D
:10157800C3F8082B09F101094FEA5808B8F1000F20
:101588003FF449AF18F0010FF4D05FFA89FB5946D0
:10159800206800F02FFF824610F0010FB8D11AF032
:1015A800080FBFD11AF0100F04D005EB4913102211
:1015B800C3F8082B1AF0020FCBD06B6913F0800F19
:1015C800BAD07B6843F480637B60B5E709EBC90355
:1015D80004EB8303002283F8572259462046FFF77D
:1015E800E9FAB1E7206800F0FDFE8046B14625E043
:1015F80059462046FFF79AFA1AF0080F04D005EB6F
:1016080049130822C3F808291AF0100F04D005EB73
:1016180049131022C3F808291AF0400F04D005EB2B
:1016280049134022C3F808291AF0020F40D11AF0D2
:10163800800F59D109F101094FEA5808B8F1000F94
:101648003FF4F0AE18F0010FF4D05FFA89FB594669
:10165800206800F0D8FE824610F0010FCCD009F0C7
:101668000F02012101FA02F27B6B23EA02037B637A
:1016780005EB4913C3F80819A3798B42B8D109EBD4
:10168800C90304EB83031A6AD9690A441A62B9F1D7
:10169800000FADD109EBC90304EB83035B6A002B90
:1016A800A6D104F29C420121206800F001FF9FE7C7
:1016B8004946284600F060FA09EBC90304EB8303A6
:1016C800DB7D012B05D005EB49130222C3F808295D
:1016D800ADE709EBC90304EB83030022DA75594629
:1016E8002046FFF76DFAEEE749462046FFF71CFB58
:1016F800A0E77B6823F001037B6094F8CC34012BCE
:1017080008D02046FFF750FA2268536903F00043D7
:1017180053618DE6002184F8CC14204600F03FF98F
:10172800F2E72046FFF728FA8DE67B6823F00103ED
:101738007B601021206800F01FFA1AE005EB4613C1
:101748004FF67F31C3F80819D3F8002922F40012A4
:10175800C3F80029C3F8081BD3F8002B22F40012A1
:10176800C3F8002BD3F8002B42F00062C3F8002B1B
:1017780001362379B342E1D8FB6943F00113FB61D9
:10178800E37BDBB1D7F8843043F00B03C7F8843030
:101798007B6C43F00B037B64D5F8003823F4FE63BD
:1017A800C5F8003804F29C42A179206800F080FE58
:1017B8002268536903F48053536150E67B6943F40C
:1017C800005343F02B037B613B6943F00B033B6100
:1017D800E2E7206800F05EFE206800F0E7FAE071BA
:1017E800266801F095F90146E279304600F046F99D
:1017F8002046FFF7ACF92268536903F4005353619C
:1018080034E62046FFF79DF92268536903F0080380
:10181800536132E601362379B3420CD906EBC6038D
:1018280004EB830393F85732012BF3D1F1B220462E
:10183800FFF791FDEEE7206800F0C8FD10F4801F67
:1018480025D1206800F0C2FD10F4001F59D00123F3
:1018580026E001362379B3421BD905EB4613D3F8AA
:10186800002906EBC60304EB83031B7E012BF0D192
:10187800002AEEDA06EBC60304EB83030122DA75CD
:1018880066F07F01C9B22046FFF765FDE1E7012652
:10189800E0E72268536903F480135361D1E7013309
:1018A80022799A4228D905EB4312D2F8001B03EBA0
:1018B800C30204EB820292F85822012AEFD10029D0
:1018C800EDDA01F48031D4F8D42402F00102914217
:1018D800E5D103EBC30204EB8202012182F857121F
:1018E800AA6942F08002AA616A6912F0800FD6D113
:1018F8007B6843F400737B602268536903F4001328
:101908005361206800F062FD10F0804F10D120680C
:1019180000F05CFD10F0040F3FF440AD23685D68F3
:1019280015F0040F0DD1226853682B43536035E539
:101938002046FFF74BF92268536903F0804353614F
:10194800E5E72046FFF748F9EDE710B40468606A58
:1019580031B940EA0240A06200205DF8044B7047AC
:101968008C46A36A00EB1340002308E003F1400112
:1019780004EB8101496800EB11400133DBB20CF143
:10198800FF318B42F2D340EA02400CF13F0104EBF5
:1019980081046060E0E7036859620020704770477F
:1019A80082B000230193019B01330193019BB3F1A2
:1019B800706F15D80369002BF5DA002301930369CA
:1019C80043F001030361019B01330193019BB3F1D0
:1019D800706F08D8036913F0010FF4D1002000E0FC
:1019E800032002B070470320FBE784B010B504461B
:1019F80003A880E80E009DF81130012B21D1A36BBC
:101A080023F48033A363E36823F4840323F04003BF
:101A1800E360E36823F44013E3609DF81830012B7A
:101A28000AD02046FFF7BCFF9DF80E30012B1CD0D2
:101A3800BDE8104004B07047E36843F48013E360E6
:101A4800EFE7E36843F04003E3602046FFF7A8FFB1
:101A58009DF8153023B9A36B43F48033A363E3E700
:101A6800A36B23F48033A363DEE7A36843F0060384
:101A7800A360A36843F02003A360D9E7022A0AD031
:101A88000922C36823F47053C360C36843EA8223FE
:101A9800C36000207047234B0B44234A93422FD93D
:101AA800224B0B44224A93422CD9A1F57403A3F587
:101AB8001053204A934227D9A1F18373A3F5E74332
:101AC8001D4A934222D31D4B0B441D4A93421FD9F2
:101AD8001C4B0B441C4A93421CD31C4B0B441C4A02
:101AE800934219D3A1F1B773A3F55853194A9342F6
:101AF80014D3194B0B44194A934211D20722C0E759
:101B08000F22BEE70E22BCE70D22BAE70C22B8E787
:101B18000B22B6E70A22B4E70922B2E70822B0E7A7
:101B28000622AEE7405327FFFF340C00401E1BFF80
:101B38003F420F007F4F120020D6130060B6E5FE2B
:101B48005FE3160000D3CEFE40771B00C05BB3FEF8
:101B5800C091210020753800E05459FEE09C4100F6
:101B6800836843F00103836000207047836823F093
:101B7800010383600020704782B000230193019B1A
:101B880001330193019BB3F1706F15D80369002BE2
:101B9800F5DA00230193890141F020010161019BDD
:101BA80001330193019BB3F1706F08D8036913F0F7
:101BB800200FF4D1002000E0032002B0704703207A
:101BC800FBE782B000230193019B01330193019B42
:101BD800B3F1706F13D80369002BF5DA0023019372
:101BE80010230361019B01330193019BB3F1706FD3
:101BF80008D8036913F0100FF4D1002000E0032087
:101C080002B070470320FBE7D0F800381943C0F84A
:101C1800001800207047000084B0F8B5044607A8F3
:101C280080E80E00002306E003F1400204EB820284
:101C38000021516001330E2BF6D99DF8266006BBB2
:101C4800D4F8043843F00203C4F80438A36B43F40F
:101C58000013A363A36B23F40023A363A36B23F4F0
:101C68008023A3630023C4F8003E9DF82130012B94
:101C780015D19DF81F306BB900212046FFF7C4FF2E
:101C880011E0A36B23F40013A363A36B43F40023B5
:101C9800A363E7E701212046FFF7B6FF03E003212E
:101CA8002046FFF7B1FF10212046FFF765FF0546E4
:101CB80000B101252046FFF784FF00B1012504F596
:101CC800006C0023CCF81030CCF81430CCF81C3061
:101CD8000AE0CBB94FF00060C2F8000900220A619F
:101CE8004FF67F328A6001339DF81C10994210D953
:101CF80004EB431202F51061D2F800090028E8DB72
:101D08000020C2F80009E9E74FF09040C2F8000946
:101D1800E4E700230AE0BBB14FF09047C2F8007B2C
:101D2800002202614FF67F3282600133994210D956
:101D380004EB431202F53060D2F8007B002FEADB97
:101D48000027C2F8007BEBE74FF00067C2F8007B82
:101D5800E6E7DCF8103023F48073CCF81030002369
:101D6800A3616FF0804363619DF81E301BB9A369BE
:101D780043F01003A361A2690B4B1343A3619DF8C1
:101D880022301BB1A36943F00803A361012E04D0DC
:101D98002846BDE8F84004B07047A36943F0804383
:101DA80043F00403A361F3E700383C80D0F8083817
:101DB80003F00603022B04D0062B04D02BB9002015
:101DC800704702207047022070470F20704710B5F7
:101DD80091F800C04B78012B23D000F5006ED0F8A5
:101DE8001C380CF00F040122A24043EA0243C0F859
:101DF8001C3800EB4C10D0F8003B13F4004F0ED108
:101E0800D0F8003B8A68C2F30A02097942EA8142A3
:101E1800134343F0805343F40043C0F8003B0020D1
:101E280010BDD0F81C280CF00F0E03FA0EF39BB26D
:101E38001343C0F81C3800EB4C10D0F8003913F4E9
:101E4800004FECD1D0F800398A68C2F30A02097948
:101E580042EA814242EA8C52134343F0805343F4EE
:101E68000043C0F80039DAE730B40B784A78012A21
:101E780026D000EB4313D3F8002B002A52DBD0F80E
:101E88003C480A7802F00F024FF0010C0CFA02F2FB
:101E980024EA0242C0F83C28D0F81C28097801F04E
:101EA8000F010CFA01FC22EA0C42C0F81C28D3F8F6
:101EB800001B234A0A40C3F8002B002030BC70479F
:101EC80000EB4313D3F80029002A1EDBD0F83C5856
:101ED8000A7802F00F02012404FA02F292B225EA0B
:101EE8000202C0F83C28D0F81C28097801F00F013C
:101EF8008C40A4B222EA0402C0F81C28D3F80019C6
:101F0800104A0A40C3F80029D7E7D3F8002942F05D
:101F18000062C3F80029D3F8002942F08042C3F8D0
:101F28000029D3E7D3F8002B42F00062C3F8002B56
:101F3800D3F8002B42F08042C3F8002B9FE700BF84
:101F48000078F3EF007833EC10B483B00246002336
:101F58000193487801280BD00B7802EB4313D3F890
:101F6800000B00282DDB002003B05DF8044B704700
:101F78000B7802EB4313D3F80049002C01DB002057
:101F8800F2E7D3F8004944F00064C3F800490B783D
:101F980002EB4313D3F8004944F08044C3F80049E6
:101FA800019B01330193019C42F210739C42DBD8E0
:101FB8000B7802EB4313D3F80039002BF0DB002039
:101FC800D2E7D3F8000B40F00060C3F8000B0B78A1
:101FD80002EB4313D3F8000B40F08040C3F8000B2A
:101FE800019B01330193019842F21073984208D87B
:101FF8000B7802EB4313D3F8003B002BF0DB0020F7
:10200800B2E70120B0E710B59DF8084084B9033362
:102018004FEA930E4FF0000C08E000EB023303F593
:10202800805351F8044B1C600CF1010CF445F4D3B7
:10203800002010BDF0B583B00C784B78012B2DD063
:1020480000EB441C0CF530631D696FF312051D612C
:102058001D696FF3DC451D61002C40F0CE800C69D2
:102068000CB18C680C618C680C621D69C4F3120495
:102078002C431C611C6944F400241C61012A00F0F3
:10208800DF800B79012B00F0E180DCF8003B43F0A6
:102098000443CCF8003B002003B0F0BD0B6973BBD0
:1020A80000EB4413D3F810596FF3DC45C3F810590B
:1020B800D3F8105945F40025C3F81059D3F810592E
:1020C8006FF31205C3F81059012A54D000EB4414D9
:1020D800D4F8003943F00443C4F800390B79012BD4
:1020E80072D00B69002BD6D0D0F83438097801F0BB
:1020F8000F0101228A401343C0F83438CBE700EBC4
:10210800441303F510631D696FF312051D611D6902
:102118006FF3DC451D6184B90E698D68AE4200D944
:102128000D611D6945F400251D611D690E69C6F321
:10213800120C45EA0C051D61C6E70D698E68354429
:10214800013DB5FBF6F51E691FFA85FC494F07EA04
:10215800C54535431D610D79012DE6D11D6925F071
:10216800C0451D611D694FEA4C7C0CF0C04C45EA26
:102178000C051D61D9E7CB691BB100EB4412C2F80D
:1021880014390B79012B08D000EB4414D4F800392A
:1021980043F00443C4F800397DE7D0F8083813F455
:1021A800807F08D100EB4412D2F8003943F0005385
:1021B800C2F80039E8E700EB4412D2F8003943F0DE
:1021C8008053C2F80039DFE7D0F8083813F4807F6D
:1021D8000CD1D4F8003943F00053C4F80039009208
:1021E8000B8A0A78C968FFF70EFF54E7D4F800395C
:1021F80043F08053C4F80039F1E70C6954B91C69FD
:102208008D68C5F312052C431C611C6944F4002435
:102218001C6133E78D682C44013CB4FBF5F4A4B28F
:1022280004FB05F50D621D69124E06EAC4442C43F1
:102238001C611C690D6AC5F312052C431C611DE75E
:10224800CA68002A3FF41DAF5A611AE7D0F8083867
:1022580013F4807F06D1DCF8003B43F00053CCF840
:10226800003B12E7DCF8003B43F08053CCF8003B1E
:102278000BE700BF0000F81F10B5844608464FEA78
:10228800920E02F00302002305E00CF58051096864
:1022980040F8041B01337345F7D37AB10CF5805C21
:1022A800DCF800400021CBB2DB0024FA03F300F88D
:1022B800013B0131013A92B2002AF4D110BD0B78EA
:1022C8004A78012A14D000EB4310D0F8002B002ADA
:1022D80006DB2BB1D0F8003B23F08043C0F8003B6D
:1022E800D0F8003B43F40013C0F8003B00207047CF
:1022F80000EB4310D0F80029002A06DB2BB1D0F8F8
:10230800003923F08043C0F80039D0F8003943F48D
:102318000013C0F80039E9E70B784A78012A0ED093
:1023280000EB4310D0F8003B23F40013C0F8003B47
:102338000B79023BDBB2012B15D90020704700EB6B
:102348004310D0F8003923F40013C0F800390B7992
:10235800023BDBB2012BF0D8D0F8003943F08053B0
:10236800C0F80039E9E7D0F8003B43F08053C0F8E3
:10237800003BE2E7D0F8003823F4FE63C0F80038E9
:10238800D0F80038090101F4FE610B43C0F80038A9
:1023980000207047D0F8003E23F00303C0F8003E49
:1023A800D0F8043823F00203C0F80438002070473E
:1023B800D0F8003E23F00303C0F8003ED0F80438FC
:1023C80043F00203C0F8043800207047426980696E
:1023D80010407047D0F8183800F50060C069184000
:1023E800000C7047D0F8183800F50060C069184034
:1023F80080B2704700EB4111D1F8082B00F500605E
:10240800406910407047D0F81028D0F8343801F0EF
:102418000F0C23FA0CF3DB01DBB2134300EB411082
:1024280000F51060806818407047406900F00100AE
:10243800704738B50546C36823F0C043C360012917
:1024480013D019BBC36843F08043C36000240A203B
:1024580000F048FD0A342846FFF7E7FF08B1C72C0B
:10246800F5D9C82C14D0002038BDC36843F00053F8
:10247800C36000240A2000F035FD0A342846FFF71F
:10248800D4FF0128EDD0C72CF4D9EAE70120EBE707
:102498000120E9E7D0F800396FF30A03C0F80039E2
:1024A800D0F8043843F48073C0F80438002070472B
:1024B80010B4046C154B9C4203D9D0F8003B002B98
:1024C80016DB0024C0F8104BD0F8104B44F400245D
:1024D800C0F8104BD0F8104B44F01804C0F8104B5B
:1024E800D0F8104B44F0C044C0F8104B012903D079
:1024F80000205DF8044B7047C0F8142BD0F8003B5F
:1025080043F08023C0F8003BF2E700BF0A30544F85
:10251800002800F0E08170B582B00446036813F02B
:10252800010F3BD09F4B9B6803F00C03042B2CD06E
:102538009C4B9B6803F00C03082B21D06368B3F510
:10254800803F4FD0B3F5A02F52D0964B1A6822F493
:1025580080321A601A6822F480221A606368002B9D
:1025680050D000F0B9FC05468E4B1B6813F4003FB1
:1025780014D100F0B1FC401B6428F5D90320B1E167
:10258800884B5B6813F4800FD8D0864B1B6813F414
:10259800003F03D06368002B00F09F81236813F08D
:1025A800020F54D07F4B9B6813F00C0F3ED07D4B2D
:1025B8009B6803F00C03082B33D0E368002B68D02A
:1025C800794B01221A6000F087FC0546754B1B68A1
:1025D80013F0020F54D100F07FFC401B0228F5D9FC
:1025E80003207FE16F4A136843F480331360B5E733
:1025F8006C4B1A6842F480221A601A6842F48032DE
:102608001A60ABE700F068FC0546664B1B6813F4DC
:10261800003FC3D000F060FC401B6428F5D90320BC
:1026280060E1604B5B6813F4800FC6D15D4B1B689B
:1026380013F0020F03D0E368012B40F05081594A90
:10264800136823F0F803216943EAC1031360236880
:1026580013F0080F42D063696BB3534B0122C3F8E0
:10266800802E00F039FC05464E4B5B6F13F0020FCD
:1026780034D100F031FC401B0228F5D9032031E1A8
:10268800484A136823F0F803216943EAC103136039
:10269800DDE7454B00221A6000F01EFC0546414B61
:1026A8001B6813F0020FD2D000F016FC401B022862
:1026B800F5D9032016E13C4B0022C3F8802E00F028
:1026C8000BFC0546374B5B6F13F0020F06D000F08A
:1026D80003FC401B0228F5D9032003E1236813F00B
:1026E800040F77D02F4B1B6C13F0805F33D100237E
:1026F80001932C4B1A6C42F080521A641B6C03F045
:1027080080530193019B0125284B1B6813F4807F9C
:1027180023D0A368012B34D0052B38D0214B1A6F56
:1027280022F001021A671A6F22F004021A67A368DE
:10273800002B3DD000F0D0FB06461A4B1B6F13F060
:10274800020F46D100F0C8FB801B41F28833984243
:10275800F3D90320C6E00025D6E7144A136843F4EA
:102768008073136000F0B8FB0646104B1B6813F427
:10277800807FCED100F0B0FB801B0228F5D9032062
:10278800B0E0084A136F43F001031367CFE7054B26
:102798001A6F42F004021A671A6F42F001021A67B0
:1027A800C5E700BF00380240000047420070004003
:1027B80000F092FB0646524B1B6F13F0020F08D035
:1027C80000F08AFB801B41F288339842F3D903203A
:1027D80088E0EDB9A369002B00F08380484A92682D
:1027E80002F00C02082A51D0022B17D0454B0022C8
:1027F8001A6600F071FB0446414B1B6813F0007F1A
:1028080042D000F069FB001B0228F5D9032069E0DB
:102818003B4A136C23F080531364DBE7394B0022E7
:102828001A6600F059FB0546354B1B6813F0007F0C
:1028380006D000F051FB401B0228F5D9032051E0D7
:10284800E369226A1343626A43EA8213A26A52085E
:10285800013A43EA0243E26A43EA0263284A5360C0
:10286800284B01221A6600F037FB0446244B1B68EC
:1028780013F0007F06D100F02FFB001B0228F5D9CA
:1028880003202FE000202DE000202BE0012B2BD08F
:102898001B4B5B6803F48001E269914226D103F087
:1028A8003F02216A8A4223D1616A47F6C0721A4000
:1028B800B2EB811F1ED103F44031A26A5208013ADB
:1028C800B1EB024F18D103F07063E26AB3EB026F09
:1028D80014D1002006E001207047012002E0012009
:1028E80000E0002002B070BD0120FBE70120F9E7FD
:1028F8000120F7E70120F5E70120F3E70120F1E7E0
:10290800003802400000474208B5264B9B6803F098
:102918000C03042B41D0082B41D1224B5A6802F0FA
:102928003F025B6813F4800F12D01E4B5968C1F345
:1029380088111D480023A1FB0001FDF7DFFC194B9E
:102948005B68C3F3014301335B00B0FBF3F008BDE0
:10295800144B5868C0F388104FEA401CBCEB000CBD
:102968006EEB0E0E4FEA8E1343EA9C634FEA8C110E
:10297800B1EB0C0163EB0E03DB0043EA5173C900B2
:1029880011EB000C43F10003990200234FEA8C205D
:1029980041EA9C51FDF7B2FCD1E70348D7E7034869
:1029A800D5E700BF0038024040787D010024F400DC
:1029B800002800F09B8070B50D4604464F4B1B68FD
:1029C80003F007038B4208D2CBB24C4A137013684A
:1029D80003F007038B4240F08B80236813F0020F4B
:1029E80017D013F0040F04D0454A936843F4E0531A
:1029F8009360236813F0080F04D0414A936843F4A6
:102A0800604393603E4A936823F0F003A1680B4348
:102A18009360236813F0010F32D06368012B21D033
:102A28009A1E012A25D9364A126812F0020F61D07F
:102A380033498A6822F0030213438B6000F04CFA92
:102A480006462F4B9B6803F00C036268B3EB820FBA
:102A580016D000F041FA801B41F288339842F0D931
:102A6800032042E0264A126812F4003FE0D1012018
:102A78003BE0234A126812F0007FD9D1012034E0EC
:102A88001E4B1B6803F00703AB4207D9EAB21B4B86
:102A98001A701B6803F00703AB422DD1236813F0AB
:102AA800040F06D0164A936823F4E053E1680B43F9
:102AB8009360236813F0080F07D0114A936823F432
:102AC8006043216943EAC1039360FFF71DFF0C4B84
:102AD8009B68C3F303130B4AD35CD8400A4B1860B6
:102AE8000A4B186800F0ACF9002070BD012070474F
:102AF8000120FAE70120F8E70120F6E7003C024050
:102B080000380240A44300086C0000206800002040
:102B1800014B1868704700BF6C00002008B5FFF72C
:102B2800F7FF044B9B68C3F38223034AD35CD84066
:102B380008BD00BF003802409C43000808B5FFF7F5
:102B4800E7FF044B9B68C3F34233034AD35CD84086
:102B580008BD00BF003802409C43000800230F2B2B
:102B680000F2E98070B582B065E085684FEA430EEF
:102B7800032404FA0EF425EA0405CC6804FA0EF4DA
:102B88002C438460446824EA02044A68C2F30012B1
:102B98009A40224342605CE0DC08083450F8242064
:102BA80003F00705AD004FF00F0E0EFA05FE22EAFE
:102BB8000E0E0A69AA4042EA0E0240F824205CE0A0
:102BC800072200E0002202FA0EF22A4302345A4D8C
:102BD80045F82420594A94686FEA0C0224EA0C0547
:102BE8004E6816F4801F01D04CEA0405534CA560CA
:102BF800E46802EA04054E6816F4001F01D04CEAA6
:102C080004054E4CE560646802EA04054E6816F453
:102C1800003F01D04CEA0405484C65602468224016
:102C28004D6815F4803F01D04CEA0402434C226001
:102C380001330F2B7DD801229A400C6804EA020C5C
:102C480032EA0404F4D14C6804F00304013C012C7A
:102C58008BD94A6802F00302032A09D0C4685D00D0
:102C68000322AA4024EA02048A68AA402243C260D6
:102C78004A6802F00302022A8ED004684FEA430E23
:102C8800032202FA0EF224EA02044A6802F003025E
:102C980002FA0EF2224302604A6812F4403FC7D09B
:102CA80000220192264A546C44F480445464526CC5
:102CB80002F480420192019A9C08A51C1E4A52F80F
:102CC800255003F0030E4FEA8E0E0F2202FA0EF281
:102CD80025EA02051B4A90423FF474AF02F5806270
:102CE80090421AD002F58062904218D002F58062B4
:102CF800904216D002F58062904214D002F58062AC
:102D0800904212D002F58062904210D002F58062A3
:102D180090423FF455AF082255E7012253E70222BB
:102D280051E703224FE704224DE705224BE706222D
:102D380049E702B070BD704700380140003C0140CF
:102D48000038024000000240002807DB00F01F02A4
:102D5800400901239340024A42F82030704700BFDF
:102D680000E100E0002808DB0901C9B200F1604079
:102D780000F5614080F80013704700F00F0009016A
:102D8800C9B2014B1954704714ED00E000B500F0CA
:102D98000700C0F1070CBCF1040F28BF4FF0040C6A
:102DA800031D062B0FD9C31E4FF0FF3E0EFA0CF081
:102DB80021EA000199400EFA03FE22EA0E0241EAD6
:102DC80002005DF804FB0023EEE70000074AD36821
:102DD80023F4E0631B041B0C000200F4E0600343CF
:102DE80043F0BF6343F40033D360704700ED00E065
:102DF80010B50446054BD868C0F30220FFF7C6FF9C
:102E080001462046FFF7AEFF10BD00BF00ED00E011
:102E180008B5FFF799FF08BD0138B0F1807F0BD2E4
:102E28004FF0E0235861054AF02182F82310002072
:102E3800986107221A6170470120704700ED00E091
:102E480010B504460E4B1A784FF47A73B3FBF2F3BD
:102E58000C4A1068B0FBF3F0FFF7DEFF68B90F2CDF
:102E680001D901200AE0002221464FF0FF30FFF788
:102E7800BFFF054B1C60002000E0012010BD00BF13
:102E8800640000206C0000206800002008B50B4B8F
:102E98001A6842F400721A601A6842F480621A6072
:102EA8001A6842F480721A600320FFF78FFF0F2020
:102EB800FFF7C6FFFDF76CFC002008BD003C024090
:102EC800034A1168034B1B780B441360704700BF1B
:102ED800901D002064000020014B1868704700BF57
:102EE800901D002038B50446FFF7F6FF0546B4F1FB
:102EF800FF3F02D0044B1B781C44FFF7EDFF401B3B
:102F0800A042FAD338BD00BF64000020002800F0BA
:102F1800CC8070B5044690F83D30002B77D0242340
:102F280084F83D302268136823F001031360226897
:102F3800136843F4004313602268136823F40043C2
:102F48001360FFF7EBFD62685A4B9A4264D85A4BFC
:102F580098428CBF00230123002B40F0A8805749DA
:102F6800A1FB00318B0C25686A6822F03F0242EA17
:102F780091426A6021680A6A22F03F0266684D4DF4
:102F8800AE424FD8013313430B622168CA6922F459
:102F98004F4222F0FF026568464B9D424CD8431EC3
:102FA8006D00B3FBF5F3013340F6FC70034278D0B3
:102FB800C3F30B031A43CA6121680B6823F0C003EB
:102FC800E269206A024313430B6021688B6823F48B
:102FD800034323F0FF032269E068024313438B6035
:102FE8002168CB6823F0FF036269A0690243134399
:102FF800CB602268136843F001031360002020644B
:10300800202384F83D30206384F83E0070BD80F8AA
:103018003C30FDF7D9FB82E7294B98428CBF00234F
:10302800012399E74FF4967505FB03F3254DA5FB9E
:1030380003539B090133A6E7A668BEB9431E05EBF7
:10304800450CB3FBFCF30133C3F30B03B3FA83F36F
:103058005B0943BBC6B9431E05EB4505B3FBF5F356
:103068000133C3F30B0343F40043A3E7431E05EB0B
:10307800850C0CEB8C0CB3FBFCF30133C3F30B0393
:10308800B3FA83F35B09E4E7431E05EB850505EB1B
:103098008505B3FBF5F30133C3F30B0343F4404356
:1030A80088E7042386E7012384E70120704701208D
:1030B800ACE700BFA08601007F841E0083DE1B43AF
:1030C800FF083D00D34D621010B50446026813692D
:1030D80023F44053C1680B431361836802691A43A0
:1030E80043691A43C3691A430168CB6823F416433A
:1030F80023F00C031343CB600268536923F4407335
:1031080081690B4353610368314A934206D002F543
:103118008062934202D0FFF701FD01E0FFF70EFD48
:10312800E369B3F5004F29D00021031849411B1862
:1031380041F10001C90041EA5371DB0018186368C6
:103148004FEA83024FEA937341F10001FDF7D6F885
:10315800204AA2FB00314909642303FB11031B0128
:103168003233A2FB03235B0903F0F00202EB0112E6
:1031780003F00F03216813448B6010BD002302186D
:1031880043EB0301121841F10001C90041EA5271F1
:10319800D200101841F10001626892185B41FDF7F6
:1031A800ADF80C4AA2FB00314909642303FB110363
:1031B800DB003233A2FB03235B095A0002F4F872E6
:1031C80002EB011203F00703216813448B60D4E774
:1031D800001001401F85EB5160B310B5044690F80C
:1031E800413013B3242384F841302268D36823F490
:1031F8000053D3602046FFF767FF2268136923F462
:10320800904313612268536923F02A0353612268AB
:10321800D36843F40053D36000206064202384F80B
:10322800413084F84230606310BD80F84030FDF7CB
:1032380003FBD7E701207047034AD2F8883043F4EC
:103248007003C2F88830704700ED00E098B108B507
:1032580003460020C3F8B802C3F8C402C3F8D0027A
:1032680009B1C3F8B412012183F89C121A701846E8
:10327800FDF7B8FC08BD0320704710B582B00023E5
:10328800ADF8063089B10446C0F8B812CB6A23B14C
:103298000DF106009847C4F8D002D4F8D8320133AB
:1032A800C4F8D832002002B010BD0320FBE708B5EF
:1032B800FDF7F7FC08BD08B5D0F8B83213B11B68A4
:1032C800984708BD0020FCE708B5D0F8B8325B681D
:1032D800984700B908BD0320FCE738B5044600F25A
:1032E800AA25284600F0C8F90123C4F89432B4F896
:1032F800B032C4F8983294F8AA1201F01F03012BD7
:1033080007D0022B0AD073B92946204600F08AFB61
:1033180038BD2946204600F0C0FBF9E7294620467B
:1033280000F0FDFBF4E701F080012046FDF7D4FC36
:10333800EEE7F8B50446012380F89C320023C0F874
:1033480094324360C0F8A43280F8A032D0F8B83282
:10335800DBB15B68DBB1002198470746C8B9402359
:10336800002211462046FDF7A4FC0126A4F864615A
:103378004025C4F860512B46002280212046FDF7E5
:1033880098FCA68425623846F8BD0027E7E70027A1
:10339800E5E70327E3E701740020704790F89C32C3
:1033A800DBB2042B04D090F89C32DBB280F89D325B
:1033B800042380F89C320020704790F89C32DBB2DE
:1033C800042B01D00020704790F89D32DBB280F8C2
:1033D8009C32F7E708B590F89C32DBB2032B01D09A
:1033E800002008BDD0F8B832002BF9D0DB69002BDB
:1033F800F6D09847F4E708B5D0F8D432AE3350F891
:1034080023205AB190F89C32DBB2032B01D0002064
:1034180008BD136A23B198470020F9E70320F7E7AE
:103428000020F5E708B5D0F8D432AE3350F82320A1
:103438005AB190F89C32DBB2032B01D0002008BDB2
:10344800536A23B198470020F9E70320F7E70020E3
:10345800F5E70020704708B5012380F89C32D0F8C2
:10346800B83223B15B680179984710B908BD0020CC
:10347800FCE70320FAE7002070470020704738B5C2
:1034880004460D46002942D11346D0F89422032A57
:1034980001D0084638BDD0F85C11D0F860219142BF
:1034A80009D890F8AA3203F01F03012B0ED0022B83
:1034B8001BD028460FE0891AC0F85C118A4228BF41
:1034C8000A46194600F08AFC2846E3E790F8AE124F
:1034D800FFF7D1FF20B994F89C32DBB2032B09D057
:1034E800204600F083FC2846D4E790F8AE12FFF798
:1034F800C4FFEFE700F1AE0354F823301A69002A3D
:10350800EED0C4F8D4021B6920469847E8E701F0DA
:103518007F01FFF7B2FF90B994F89C32DBB2032B1E
:10352800B8D100F1AE0354F823309A69002AB1D01B
:10353800C4F8D4029B69294620469847AAE7002088
:10354800A8E738B504460D4600294BD11346D0F8F4
:103558009422022A07D094F8A00218B1002384F814
:10356800A032284638BDC269016A8A420ED88A420A
:1035780018D094F89C32DBB2032B27D08021204648
:10358800FDF7AAFB204600F03CFCE4E7521AC261B2
:10359800194600F00CFC00231A4619462046FDF790
:1035A800BBFBD8E783699942E3D8D0F898229342C5
:1035B800DFD20022114600F0FAFB0021C4F898126D
:1035C8000B460A462046FDF7A7FBC4E7D4F8B832F5
:1035D800DA68002AD2D00022C4F8D422DB68204658
:1035E8009847CBE741F08001FFF747FF90B994F87F
:1035F8009C32DBB2032BB5D100F1AE0354F8233073
:103608005A69002AAED0C4F8D4025B69294620461C
:103618009847A7E70020A5E70B88027813440B809A
:10362800037818447047428803789A4218D930B50D
:1036380083B004460D46ADF806306388BDF8062011
:103648009A420AD20DF10601FFF7E6FF4378052BEF
:10365800F3D18378AB42F0D100E0002003B030BD55
:10366800002070470346002002E00130C0B2013359
:103678001A78002AF9D170470B7803704B78437099
:103688008B78CA7843EA022343800B794A7943EA64
:10369800022383808B79CA7943EA0223C380704767
:1036A80010B504468021FDF717FB00212046FDF7E1
:1036B80013FB10BD30B583B004460D460023ADF8AA
:1036C80006304A88130A013B062B00F2AB80DFE87C
:1036D80003F0041F33A9A98D9A00D0F8B4321B68EF
:1036E8000DF10601007C9847EA88002A00F0A380C3
:1036F800BDF80630002B00F099809A4228BF1A4680
:10370800ADF806200146204600F044FB03B030BD6A
:10371800037C43B9D0F8B8329B6A0DF1060098478C
:1037280002234370E0E7D0F8B832DB6A0DF10600F7
:10373800984702234370D7E7D2B2052A52D8DFE868
:1037480002F003101D2A3744D0F8B4325B6823B165
:103758000DF10601007C9847C6E72946FFF7A0FF50
:10376800D4E7D0F8B4329B6823B10DF10601007C90
:103778009847B9E72946FFF793FFC7E7D0F8B4326F
:10378800DB6823B10DF10601007C9847ACE72946B8
:10379800FFF786FFBAE7D0F8B4321B6923B10DF101
:1037A8000601007C98479FE72946FFF779FFADE7B8
:1037B800D0F8B4325B6923B10DF10601007C98475B
:1037C80092E72946FFF76CFFA0E7D0F8B4329B696F
:1037D80023B10DF10601007C984785E72946FFF7DC
:1037E8005FFF93E72946FFF75BFF8FE7037C33B959
:1037F800D0F8B8325B6B0DF10600984774E729469C
:10380800FFF74EFF82E7037C43B9D0F8B8321B6B51
:103818000DF1060098470723437065E72946FFF72F
:103828003FFF73E72946FFF73BFF6FE7294620462E
:10383800FFF736FF6AE7204600F0D8FA66E738B5A2
:1038480004468B88FBB9CB88EBB94B887F2B1AD8F9
:1038580003F07F0590F89C32DBB2032B0CD080F884
:103868009E522946FDF748FA204600F0BFFA35B1C6
:10387800022384F89C3209E0FFF712FF06E00123D7
:1038880084F89C3202E02046FFF70AFF38BD0000AA
:1038980070B504460E468D782F4B1D70012D10D83B
:1038A80090F89C32DBB2022B0FD0032B26D0FFF707
:1038B800F7FE294B19782046FFF706FD0325284611
:1038C80070BDFFF7EDFE0325F9E7A5B14560294670
:1038D800FFF7F1FC054638B131462046FFF7E0FE18
:1038E800022384F89C32EAE7204600F07FFA03239B
:1038F80084F89C32E3E700F079FAE0E7CDB141685B
:103908008D4225D0C9B2FFF7DFFC134B19786160EF
:103918002046FFF7D0FC0546B0B131462046FFF7F8
:10392800BFFE21792046FFF7CFFC022384F89C32A2
:10393800C5E7022380F89C3245602946FFF7C4FC9E
:10394800204600F053FABAE7204600F04FFAB6E7EF
:1039580000F04CFA0025B2E7941D002008B5CB888A
:10396800012B0BD190F89C32DBB2022B09D9032B27
:1039780011D10122011D00F00DFA01E0FFF790FEC0
:1039880008BD5BB23BB10146002341F8083F012264
:1039980000F000FAF4E7FFF783FEF1E708B590F8C6
:1039A8009C32013B022B12D8CB88022B0CD101236D
:1039B800C360D0F8A4320BB10323C360022200F124
:1039C8000C0100F0E7F908BDFFF76AFEFBE7FFF717
:1039D80067FEF8E708B54B88012B04D0022B07D007
:1039E800FFF75EFE08BDC0F8A43200F0FFF9F9E762
:1039F8008B881B0A80F8A03200F0F8F9F2E708B5C6
:103A080090F89C32013B022B09D84B88012B00D03F
:103A180008BD0023C0F8A43200F0E8F9F8E7FFF782
:103A28003FFEF5E738B50C7804F06004202C06D08A
:103A3800402C04D06CB1FFF733FE002407E0D0F827
:103A4800D432AE3350F823309B689847044620465A
:103A580038BD4D78092D1DD8DFE805F012191C1660
:103A68001C08051C0F0BFFF725FEF0E7FFF7E7FE24
:103A7800EDE7FFF70DFF0446E9E7FFF76FFFE6E71D
:103A8800FFF78CFF2C46E2E7FFF7A4FFDFE7FFF71D
:103A9800B6FFDCE7FFF704FED9E770B505460C462C
:103AA8000B7803F06003202B07D0402B05D023B1FF
:103AB800FFF7F6FD0026304670BD95F89C32013BB5
:103AC800022B26D82179012905D921462846FFF756
:103AD800E7FD0026EFE72846FFF7CDFC68B900F1BF
:103AE800AE0255F82220916889B1C5F8D4029368CE
:103AF800214628469847064600E00326E388002B1F
:103B0800D9D1002ED7D1284600F070F9D3E7032683
:103B1800F4E721462846FFF7C3FD0026CBE72DE949
:103B2800F04106460D468B88DFB20C7804F060043D
:103B3800202C08D0402C06D0DCB1FFF7B1FD0024C2
:103B48002046BDE8F08139463046FFF796FC04462A
:103B5800002840F0F880C6F8D40200F1AE0356F809
:103B680023309B68002BEBD0294630469847044603
:103B7800E6E791F80180B8F1010F31D0B8F1030FF1
:103B880005D0B8F1000F67D0FFF78AFDD8E790F8A5
:103B98009C32DBB2022B04D0032B12D0FFF780FD3E
:103BA800CEE70FB1802F04D129463046FFF778FDC4
:103BB800C6E73946FDF790F880213046FDF78CF8C6
:103BC800BEE74B8823B91FB1802F01D0CB881BB12A
:103BD800304600F00BF9B3E73946FDF77DF8F7E713
:103BE80090F89C32DBB2022B04D0032B12D0FFF7E3
:103BF80057FDA5E70FB1802F04D129463046FFF7BE
:103C08004FFD9DE73946FDF767F880213046FDF7FF
:103C180063F895E74B88002B92D117F07F0F17D1E7
:103C2800304600F0E3F839463046FFF726FC002816
:103C380086D1C6F8D40200F1AE0256F82220926866
:103C4800002A00F08280294630469047044677E7EC
:103C58003946FDF749F8E3E790F89C22D2B2022AE8
:103C680005D0032A27D0FFF71BFD444668E70FB1AC
:103C7800802F13D113F0800F14D107F07F0707EBC3
:103C88008707B90001F5A8713144043100230B609E
:103C98000222304600F07EF8444651E7FFF700FD67
:103CA80044464DE707F07F0707EB8707B900103157
:103CB80031440431EAE75BB2002B1FDB07F00F0247
:103CC80002EB820200EB8202B2F864211AB3002BE5
:103CD80025DB07F07F0303EB83039C0004F5A8743E
:103CE800344404340FB1802F22D1002323600222F0
:103CF8002146304600F04EF8444621E707F00F020F
:103D080002EB820200EB8202928C002ADFD1FFF7DD
:103D1800C7FC444614E7FFF7C3FC444610E707F026
:103D28007F0303EB83039C00103434440434D9E745
:103D380039463046FCF78AFF10B101232360D6E7E5
:103D480000232360D3E70024FAE60446F8E600B32C
:103D580070B50D4616460446FFF784FC0130430053
:103D6800B3F5007F06D89BB233802B7003236B70AA
:103D780002230AE04FF40073F6E7EA5401345A1CB0
:103D8800D2B20021A9540233DBB22278002AF4D13E
:103D980070BD704708B513460222C0F894228361AB
:103DA800C3610A460021FCF7AFFF002008BD08B533
:103DB80013460A460021FCF7A7FF002008BD08B5F6
:103DC80013460322C0F89422C0F85831C0F85C3179
:103DD8000A460021FCF7A0FF002008BD08B51346DD
:103DE8000A460021FCF798FF002008BD08B5042208
:103DF800C0F8942200231A461946FCF785FF0020D4
:103E080008BD08B50522C0F8942200231A461946B1
:103E1800FCF782FF002008BD10B5D0F8D43203F1BA
:103E2800B00250F822408CB100EB820043687BB1AD
:103E380094F80002FF280DD09B6894F801222146CF
:103E48009847FF2384F80032002010BD0320FCE7C8
:103E58000020FAE70020F8E70A23038000487047AB
:103E6800EC000020F8B506460F4F82213846FFF7D0
:103E7800DAFB054601213846FFF7D5FB04468121C8
:103E88003846FFF7D0FB0DB11022AA711CB14022B1
:103E980022710022627118B140220271002242711F
:103EA800432333800048F8BD70000020F8B506466B
:103EB8000F4F82213846FFF7B6FB054601213846E9
:103EC800FFF7B1FB044681213846FFF7ACFB0DB183
:103ED8001022AA711CB1402222710022627118B10D
:103EE8004022027100224271432333800048F8BD0A
:103EF80070000020F8B506460F4F82213846FFF7BC
:103F080092FB054601213846FFF78DFB04468121C7
:103F18003846FFF788FB0DB11022AA711CB10022A8
:103F280022710222627118B10022027102224271CA
:103F3800432333800048F8BD7000002038B5D0F81E
:103F4800D432B03350F8235095B10446FCF794FEB0
:103F5800C5F80C02D4F8D432B03304EB8304636898
:103F6800DB6805F50371D5F804029847002038BDD1
:103F78000320FCE738B5D0F8C852D0F8D432B033B3
:103F880050F8234084B301F00F0303EB830200EBE6
:103F9800820292694AB103EBC30C05EB8C05ED690B
:103FA800B2FBF5FC05FB1C2292B10023C4F81432C5
:103FB800D0F8D432B03300EB830043681B69ABB14F
:103FC8000A4604F50471D4F808029847002038BD61
:103FD80003EB830300EB830300249C612346224602
:103FE800FCF792FE2046F2E70320F0E70020EEE718
:103FF800F0B583B0D0F8D43203F1B00250F8227093
:1040080000228DF80720ADF80420002F7BD004464D
:104018000D46097811F0600634D0202E6CD1EA885C
:104028002AB311F0800F07D16B7887F80032EA883D
:104038003F2A13D8D2B212E0B03300EB83035B6897
:104048009B68394668789847EA88072A28BF072274
:1040580039462046FFF79EFE002651E0402287F8A9
:10406800012239462046FFF7AAFE002648E0B03371
:1040780000EB83035B689B680022294668789847B1
:1040880000263DE06F780B2F31D8DFE807F00639BE
:104098003030303030303030162690F89C32DBB279
:1040A800032B04D02946FFF7FBFA032628E0022257
:1040B80001A9FFF76FFE3E4622E090F89C32DBB282
:1040C800032B04D02946FFF7EBFA032618E0012258
:1040D8000DF10701FFF75EFE12E090F89C32DBB2AB
:1040E800032B0DD02946FFF7DBFA032608E0294603
:1040F800FFF7D6FA032603E02946FFF7D1FA03268D
:10410800304603B0F0BD0326FAE738B504468121EE
:10411800FCF7DAFD0025258701212046FCF7D4FDB0
:10412800A4F8785182212046FCF7CEFDA4F84C5023
:10413800A4F84E50D4F8D43203F1B00254F8222037
:104148009AB1B03304EB83035B685B689847D4F893
:10415800D432B03354F82300FCF798FDD4F8D432A5
:10416800B03344F82350C4F8BC52002038BD70B5B1
:1041780004464FF40770FCF785FD002849D0054632
:104188004FF407720021FCF767F8D4F8D432B03343
:1041980044F82350C4F8BC52237C002B41D14FF47F
:1041A8000073022281212046FCF783FD0126268721
:1041B8004FF40073022231462046FCF77AFDA4F83A
:1041C80078611023A4F84E30082303228221204668
:1041D800FCF76FFD0123A4F84C300026C5F80462F3
:1041E800D4F8D432B03304EB83035B681B68984778
:1041F800C5F81462C5F81862D5F8042262B3257CA4
:104208001DBB4FF4007301212046FCF785FD2846AD
:1042180070BDD4F8D432B033002244F823200225EC
:10422800F5E74023022281212046FCF742FD0126C2
:1042380026874023022231462046FCF73AFDA4F89F
:1042480078611023A4F84E30BEE7402301212046B0
:10425800FCF762FD0025DAE70225D8E739B1D0F886
:10426800D432B03300EB8300416000207047032054
:104278007047D0F8D432B03350F823302BB1C3F89C
:104288000812C3F810220020704703207047D0F8A6
:10429800D432B03350F823301BB1C3F804120020D5
:1042A80070470320704710B5D0F8D432B03350F8B7
:1042B800232092B1047C44B94FF40073D2F804224D
:1042C8000121FCF729FD204610BD4023D2F8042225
:1042D8000121FCF721FD0024F5E70324F3E70000A2
:1042E800DFF834D0FEF7A8FF0C480D490D4A00232B
:1042F80002E0D458C4500433C4188C42F9D30A4A93
:104308000A4C002301E013600432A242FBD3FBF7FE
:104318007BFFFCF71BFA704700000220000000201A
:10432800F8000020C4430008F8000020981D002071
:10433800FEE70000F8B500BFF8BC08BC9E46704711
:0C434800F8B500BFF8BC08BC9E467047EA
:1043540053544D3332205669727475616C20436F27
:104364006D506F727400000053544D6963726F6531
:104374006C656374726F6E69637300004344432019
:10438400436F6E666967000043444320496E746559
:10439400726661636500000000000000010203040E
:1043A40000000000000000000102030406070809E1
:0843B40080BFFF7F0100000043
:0443BC00F101000803
:0443C000C901000827
:1043C4001A030000000000000000000000000000CC
:1043D40000000000000000000000000004030904C5
:1043E400120100020202004083044057000201024D
:1043F400030100000509000811090008D509000897
:10440400B10900089D090008F1090008150A00080F
:10441400610A0008390A00083D0A0008450A000834
:10442400410A000801000000100000000024F4000C
:1044340009024300020100C0320904000001020223
:1044440001000524001001052401000104240202D6
:104454000524060001070582030800100904010071
:10446400020A00000007050102400000070581025E
:10447400400000007741000813410008F93F00089C
:1044840000000000213E00087D3F0008453F000871
:10449400000000000000000000000000FD3E0008D5
:1044A400B53E00086D3E0008613E00080A060002A1
:0844B4000000004001000000BF
:04000005080042E9C4
:00000001FF
